:1000000018C032C031C030C02FC02EC02DC02CC08F
:100010002BC02AC029C028C027C026C025C024C0A4
:1000200023C022C021C01F1C1F1E1F1E1F1F1E1FFA
:100030001E1F11241FBECFE5D4E0DEBFCDBF10E0F0
:10004000A0E6B0E0EAE7FEE002C005900D92A03C19
:10005000B107D9F710E0A0ECB0E001C01D92A83CB8
:10006000B107E1F780D207C7CBCF11B88AE280B9D8
:10007000089594EA96BF06B607FEFDCF91B1987F2A
:10008000983021F0903111F081E0089583B984E82F
:1000900086BF06B607FEFDCF81B1887F883111F09B
:1000A000803491F780E0089524EA34E844E926BFDB
:1000B00006B607FEFDCF91B1987F983011F09031D0
:1000C000B1F783B936BF06B607FEFDCF91B1987F71
:1000D000903211F0983529F446BF06B604FCFDCFE6
:1000E000E6CF0895C6CF84E986BF06B604FCFDCFEF
:1000F000089583B984E886BF06B607FEFDCF91B1A7
:10010000987F81E0983209F480E0089584EC86BFFE
:1001100006B607FEFDCF83B1089584E886BF06B614
:1001200007FEFDCF83B1089580FF02C0C39A01C0CE
:10013000C39881FF02C0C49A01C0C49882FF02C064
:10014000C59A01C0C59883FF02C0C69A0895C69893
:10015000089586B383FB882780F9B4998260B599A6
:100160008460B69988600895CF93DF93BB98BC985C
:10017000BD98BE98C19AC29AECDF90E1899FE001D8
:100180001124C298C29AE5DFC2988C2BDF91CF91DF
:100190000895C098E9CFCF93C82FBB9ABC9ABD9A57
:1001A000BE9AC198C29A82958F70BEDFC298C29AD9
:1001B0008C2FBADFC298EDDF87FDFDCFCF91089578
:1001C000C098E9CFC09AE7CFC09ACECFCF93DF9344
:1001D000EC018991882311F0F5DFFBCFDF91CF91FE
:1001E000089590E4699F800D11248068E9CF81E033
:1001F000E7DF83EF91E00197F1F700C00000089579
:1002000082E0DEDF83EF91E00197F1F700C00000AC
:100210000895CF93BB9ABC9ABD9ABE9ABA9AB89ADF
:10022000B99A85EA9EE00197F1F700C00000C098F6
:10023000C298C198C3E0C29A83E076DFC29881EE8B
:1002400094E00197F1F700C00000C150A1F7C29AF5
:1002500082E06ADFC29889EF90E00197F1F700C071
:10026000000088E2ADDF88E0ABDF81E0A9DF86E057
:10027000A7DF8CE0CF91A4CFF8DE83E08A95F1F779
:1002800000000895282F6AE017D3982F990F980F30
:10029000990F892F820F089550E0E6E2F0E091E097
:1002A0009E1B292F2E0F261728F42491420F511D33
:1002B0003196F7CF633028F0982F937011F44F5F89
:1002C0005F4F282F30E06DE671E0269FC001279F29
:1002D000900D369F900D112405962D5F3F4F35955B
:1002E000279535952795820F931F840F951F67E0FB
:1002F00070E0EED20895BF92CF92DF92EF92FF921C
:100300000F931F93CF93DF931F92CDB7DEB7F82ED5
:10031000B62E142F8BE38E1508F472C00C3308F040
:100320006FC0283108F06CC08FEF840F8F3108F058
:1003300067C08FEF860F8C3008F062C0E3E6EF15E0
:1003400008F45EC0E62FF0E0EB5DFF4FE491E417A8
:1003500008F458C08F2D29839FDFD82E80EDA4DEAE
:1003600080E0C7DE7AE0C72E8E2D6C2DA5D2982FA7
:10037000990F980F990F892F8E0DBBDE802F6C2D52
:100380009BD2982F990F980F990F892F800FB1DE6C
:100390002981822F6C2D90D2982F990F980F990F49
:1003A000892F820FA6DE8D2D6C2D86D2982F990F66
:1003B000980F990F892F8D0D9CDE812F6C2D7CD28B
:1003C000982F990F980F990F892F810F92DE8B2DFF
:1003D0006C2D72D2982F990F980F990F892F8B0D32
:1003E00088DE8F2D6C2D68D2982F990F980F990F5A
:1003F000892F8F0D7EDE80E07CDE75DE81E003C01C
:1004000088E001C080E00F90DF91CF911F910F91A4
:10041000FF90EF90DF90CF90BF9008957F928F92E2
:100420009F92AF92BF92CF92DF92EF92FF920F9383
:100430001F93CF93DF93EC016B015A01490180EDCB
:1004400033DE80E056DE4FDE81ED4CDE5FDE8F77FF
:10045000982F92959F70EAEF7E2E979D800D112424
:10046000F701808353DE982F92959F70979D800DA2
:100470001124F80180834ADE982F92959F70979DF2
:10048000800D1124F401808341DE40DE982F929587
:100490009F70979D800D1124F501808337DE982F82
:1004A00092959F70979D800D1124F601808335DE13
:1004B000982F92959F70979D800D11248883DF91CE
:1004C000CF911F910F91FF90EF90DF90CF90BF9051
:1004D000AF909F908F907F9006CE1F93CF93DF9326
:1004E000C82F8091C6008C17C0F481DE60E082E0E6
:1004F00078DED0E09E01215031091FE0129FC0013B
:10050000139F900D1124805A9F4F60DE61E080E0C0
:1005100068DE8BEA90E05ADE17C0C81700F567DE88
:1005200060E080E05EDE8BEA90E050DED0E01FE02D
:100530001C9FC0011D9F900D1124805A9F4F46DEC5
:1005400061E082E04EDE21961C9FC0011D9F900D50
:100550001124805A9F4FDF91CF911F9137CEDF91A9
:10056000CF911F910895CF93DF93CDB7DEB7C456D7
:10057000D1090FB6F894DEBF0FBECDBF80EF82BBAE
:1005800048DE35DE3DDE8BEA90E020DE8091C7005C
:100590001FE0189FC0011124805A9F4F17DE61E0B1
:1005A00082E01FDE2091C70030E02F5F3F4F129F97
:1005B000C001139F900D1124805A9F4F07DE3EEA21
:1005C000A32E30E0B32E4E0183E3880E911C47EB3F
:1005D000642E40E0742ECE0101966C01849914C003
:1005E00087E893E10197F1F700C00000849BFECFFC
:1005F0008091C7008093C60091E0811101C090E016
:10060000891B8093C70069DF85991AC087E893E149
:100610000197F1F700C00000859BFECF8091C700D5
:100620008093C60091E0843008F090E0890F8093B9
:10063000C70053DF87E893E10197F1F700C000009E
:100640008799E7C087E893E10197F1F700C00000C0
:10065000879BFECFCCDD8091C700882391F18091EC
:10066000C700823009F0CFC080ECE82E80E0F82E81
:1006700001EC10E022EC30E043EC50E064EC70E080
:1006800085EC90E0CBDE8091C5009091C3001F9275
:100690009F939091C4001F929F938F5F1F928F939F
:1006A000BF92AF92DF92CF9227D1A1DD60E080E0D0
:1006B00098DDC6018BDD0FB6F894DEBF0FBECDBF4F
:1006C000A2C02FE0522E90ECE92E90E0F92E01EC22
:1006D00010E022EC30E043EC50E064EC70E085EC9C
:1006E00090E09CDE84DD60E082E07BDD8091C300F1
:1006F0001F928F938091C4001F928F938091C500A9
:100700001F928F93BF92AF929F928F92F5D0C401A8
:100710005DDD8091C0001F928F938091C1001F9278
:100720008F938091C2001F928F937F926F92DF927E
:10073000CF92E2D061E084E054DDC60147DD8FE472
:1007400093EC0197F1F700C000000FB6F894DEBFFC
:100750000FBECDBF869951C087E893E10197F1F7AD
:1007600000C00000869BFECF8091C7008430E8F473
:100770003EDD60E080E035DD8BEA90E027DD8091B2
:10078000C700589EC0011124805A9F4F1FDD61E0B1
:1007900082E027DD2091C70030E02F5F3F4F529E5F
:1007A000C001539E900D11241CC021DD60E082E049
:1007B00018DD2091C70030E021503109529EC00160
:1007C000539E900D1124805A9F4F00DD61E080E020
:1007D00008DD8BEA90E0FADC8091C700589EC001EA
:1007E0001124805A9F4FF2DC87E893E10197F1F7DB
:1007F00000C0000081E090E002C080E090E0892B22
:1008000009F461CF2CCF87E893E10197F1F700C09D
:1008100000008699E3CE87E893E10197F1F700C0E5
:100820000000869BFECF8091C7008430F0F4DFDCAF
:1008300060E080E0D6DC8BEA90E0C8DC8091C70005
:100840001FE0189FC0011124805A9F4FBFDC61E058
:1008500082E0C7DC2091C70030E02F5F3F4F129F3E
:10086000C001139F900D11241DC0C1DC60E082E027
:10087000B8DC2091C70030E0215031091FE0129F01
:10088000C001139F900D1124805A9F4F9FDC61E09F
:1008900080E0A7DC8BEA90E099DC8091C700189F8C
:1008A000C0011124805A9F4F91DC87E893E10197A2
:1008B000F1F700C0000092CE991B79E004C0991FA7
:1008C000961708F0961B881F7A95C9F780950895AA
:1008D000AA1BBB1B51E107C0AA1FBB1FA617B70766
:1008E00010F0A61BB70B881F991F5A95A9F7809582
:1008F0009095BC01CD010895AEE0B0E0E1E8F4E0F0
:1009000091C20D891E8986E08C831A8309838FEF3B
:100910009FE79E838D83AE01475E5F4F6F89788D21
:10092000CE01019608D0EF81F885E00FF11F10820B
:100930002E96E4E093C2ACE0B0E0E0EAF4E064C2FA
:100940007C016B018A01FC0117821682838181FF81
:10095000B0C1CE0101964C01F7019381F60193FDE0
:10096000859193FF81916F01882309F49EC185329F
:1009700039F493FD859193FF81916F01853221F4C4
:10098000B70190E0B1D1E8CF512C312C20E02032DA
:10099000A0F48B3269F030F4803259F0833269F47C
:1009A00020612CC08D3239F0803339F4216026C0AB
:1009B0002260246023C0286021C027FD27C030EDBD
:1009C000380F3A3078F426FF06C0FAE05F9E300D0B
:1009D0001124532E13C08AE0389E300D1124332E7B
:1009E00020620CC08E3221F426FD5FC1206406C057
:1009F0008C3611F4206802C0883641F4F60193FD6C
:100A0000859193FF81916F018111C1CF982F9F7DB7
:100A10009554933028F40C5F1F4FFFE3F9830DC00A
:100A2000833631F0833771F0833509F057C021C028
:100A3000F801808189830E5F1F4F44244394512C19
:100A4000540114C03801F2E06F0E711CF801A0804F
:100A5000B18026FF03C0652D70E002C06FEF7FEF0D
:100A6000C5012C8736D12C0183012C852F77222EAE
:100A700016C03801F2E06F0E711CF801A080B18041
:100A800026FF03C0652D70E002C06FEF7FEFC50148
:100A90002C8714D12C012C852068222E830123FC65
:100AA00019C0832D90E048165906A0F4B70180E2E2
:100AB00090E01AD13A94F5CFF50127FC859127FEF5
:100AC00081915F01B70190E00FD131103A94F1E0CC
:100AD0004F1A51084114510479F7DEC0843611F0E1
:100AE000893631F5F80127FF07C060817181828165
:100AF00093810C5F1F4F08C060817181882777FD4B
:100B00008095982F0E5F1F4F2F76B22E97FF09C04A
:100B100090958095709561957F4F8F4F9F4F20687E
:100B2000B22E2AE030E0A40111D1A82EA81843C0AB
:100B3000853729F42F7EB22E2AE030E025C0F22F2F
:100B4000F97FBF2E8F36C1F018F4883579F0ADC02B
:100B5000803719F0883721F0A8C02F2F2061B22EDE
:100B6000B4FE0DC08B2D8460B82E09C024FF0AC0CE
:100B70009F2F9660B92E06C028E030E005C020E126
:100B800030E002C020E132E0F801B7FE07C060812A
:100B90007181828193810C5F1F4F06C060817181DA
:100BA00080E090E00E5F1F4FA401D0D0A82EA818BF
:100BB000FB2DFF77BF2EB6FE0BC02B2D2E7FA5146D
:100BC00050F4B4FE0AC0B2FC08C02B2D2E7E05C026
:100BD0007A2C2B2D03C07A2C01C0752C24FF0DC05C
:100BE000FE01EA0DF11D8081803311F4297E09C0D8
:100BF00022FF06C07394739404C0822F867809F094
:100C0000739423FD12C020FF06C05A2C731418F4ED
:100C1000530C5718732C731460F4B70180E290E002
:100C20002C8762D073942C85F6CF731410F4371888
:100C300001C0312C24FF11C0B70180E390E02C8764
:100C400053D02C8522FF16C021FF03C088E590E019
:100C500002C088E790E0B7010CC0822F867851F07F
:100C600021FD02C080E201C08BE227FD8DE2B701C9
:100C700090E03AD0A51430F4B70180E390E034D08E
:100C80005A94F8CFAA94F401EA0DF11D8081B701BE
:100C900090E02AD0A110F6CF332009F45DCEB70141
:100CA00080E290E021D03A94F7CFF70186819781D6
:100CB00002C08FEF9FEF2C96E2E1C2C0FC010590CD
:100CC000615070400110D8F7809590958E0F9F1F4E
:100CD0000895FC016150704001900110D8F7809593
:100CE00090958E0F9F1F08950F931F93CF93DF93BF
:100CF000182F092FEB018B8181FD03C08FEF9FEF30
:100D000020C082FF10C04E815F812C813D8142173F
:100D100053077CF4E881F9819F012F5F3F4F3983AE
:100D20002883108306C0E885F985812F0995892BD2
:100D300029F72E813F812F5F3F4F3F832E83812FE5
:100D4000902FDF91CF911F910F910895FA01AA275B
:100D5000283051F1203181F1E8946F936E7F6E5FFE
:100D60007F4F8F4F9F4FAF4FB1E03ED0B4E03CD0AC
:100D7000670F781F891F9A1FA11D680F791F8A1F8F
:100D8000911DA11D6A0F711D811D911DA11D20D0F6
:100D900009F468943F912AE0269F11243019305DB0
:100DA0003193DEF6CF010895462F4770405D4193A1
:100DB000B3E00FD0C9F7F6CF462F4F70405D4A33EE
:100DC00018F0495D31FD4052419302D0A9F7EACFB6
:100DD000B4E0A6959795879577956795BA95C9F7E5
:100DE00000976105710508959B01AC010A2E0694D8
:100DF0005795479537952795BA95C9F7620F731F91
:100E0000841F951FA01D08952F923F924F925F92CD
:100E10006F927F928F929F92AF92BF92CF92DF920A
:100E2000EF92FF920F931F93CF93DF93CDB7DEB76F
:100E3000CA1BDB0B0FB6F894DEBF0FBECDBF099403
:100E40002A88398848885F846E847D848C849B845A
:100E5000AA84B984C884DF80EE80FD800C811B8168
:100E6000AA81B981CE0FD11D0FB6F894DEBF0FBE97
:0A0E7000CDBFED010895F894FFCF07
:100E7A00506F6B617A20637A61730000000000553D
:100E8A007374617720637A61730000000000557300
:100E9A007461772064617465000000000055737402
:100EAA00617720616C61726D00000000576C2F57EA
:100EBA00796C20616C61726D0000003E200025642F
:100ECA002F25642F25640025643A25643A25640099
:00000001FF
