:1000000012C02CC02BC02AC029C028C027C026C0BF
:1000100025C024C023C022C021C020C01FC01EC0D4
:100020001DC01CC01BC011241FBECFE5D4E0DEBF25
:10003000CDBF10E0A0E6B0E0E4ECF3E002C0059034
:100040000D92AE3BB107D9F710E0AEEBB0E001C0C6
:100050001D92A03CB107E1F7F0D0B2C1D1CF80FF33
:1000600002C0C39A01C0C39881FF02C0C49A01C0F4
:10007000C49882FF02C0C59A01C0C59883FF02C020
:10008000C69A0895C698089586B383FB882780F999
:10009000B4998260B5998460B69988600895CF93C9
:1000A000DF93BB98BC98BD98BE98C19AC29AECDF0A
:1000B00090E1899FE0011124C298C29AE5DFC298BD
:1000C0008C2BDF91CF910895C098E9CFCF93C82FA3
:1000D000BB9ABC9ABD9ABE9AC198C29A82958F70FB
:1000E000BEDFC298C29A8C2FBADFC298EDDF87FDBF
:1000F000FDCFCF910895C098E9CFC09AE7CFC09ABD
:10010000CECFCF93DF93EC018991882311F0F5DFF7
:10011000FBCFDF91CF91089590E4699F800D11246A
:100120008068E9CF81E0E7DF83EF91E00197F1F7A5
:1001300000C00000089582E0DEDF83EF91E00197C8
:10014000F1F700C000000895CF93BB9ABC9ABD9A06
:10015000BE9ABA9AB89AB99A85EA9EE00197F1F7E1
:1001600000C00000C098C298C198C3E0C29A83E062
:1001700076DFC29881EE94E00197F1F700C00000AD
:10018000C150A1F7C29A82E06ADFC29889EF90E07D
:100190000197F1F700C0000088E2ADDF88E0ABDF37
:1001A00081E0A9DF86E0A7DF8CE0CF91A4CF1F9389
:1001B000CF93DF93C82F8091BE008C17C0F4B2DFBD
:1001C00060E082E0A9DFD0E09E01215031091FE00C
:1001D000129FC001139F900D1124805A9F4F91DFF1
:1001E00061E080E099DF8BEA90E08BDF17C0C817F1
:1001F00000F598DF60E080E08FDF8BEA90E081DF40
:10020000D0E01FE01C9FC0011D9F900D1124805A5B
:100210009F4F77DF61E082E07FDF21961C9FC00166
:100220001D9F900D1124805A9F4FDF91CF911F91F8
:1002300068CFDF91CF911F91089580EF82BB84DF5B
:1002400071DF79DF8BEA90E05CDF8091BF00CFE067
:10025000C89FC0011124805A9F4F53DF61E082E0A4
:100260005BDF2091BF0030E02F5F3F4FC29FC00196
:10027000C39F900D1124805A9F4F43DF849914C06F
:1002800087E893E10197F1F700C00000849BFECF5F
:100290008091BF008093BE0091E0811101C090E089
:1002A000891B8093BF0083DF85991AC087E893E19B
:1002B0000197F1F700C00000859BFECF8091BF0041
:1002C0008093BE0091E0843008F090E0890F809325
:1002D000BF006DDF87E893E10197F1F700C00000F0
:1002E00087991DC087E893E10197F1F700C00000EE
:1002F000879BFECF17DF8EEA90E003DF61E080E0AE
:100300000BDF8091BF00C89FC0011124805A9F4F0E
:10031000F8DE87E893E10197F1F700C000008699C5
:10032000ADCF87E893E10197F1F700C00000869B0D
:10033000FECF8091BF008430E8F4F4DE60E080E01E
:10034000EBDE8BEA90E0DDDE8091BF00C89FC0014C
:100350001124805A9F4FD5DE61E082E0DDDE2091DE
:10036000BF0030E02F5F3F4FC29FC001C39F900D81
:1003700011241CC0D7DE60E082E0CEDE2091BF00F9
:1003800030E021503109C29FC001C39F900D11245C
:10039000805A9F4FB6DE61E080E0BEDE8BEA90E0DF
:1003A000B0DE8091BF00C89FC0011124805A9F4FCA
:1003B000A8DE87E893E10197F1F700C000005ECF67
:0403C000F894FFCFDF
:1003C400506F6B617A20637A6173000000000055FE
:1003D4007374617720637A617300000000005573C1
:1003E40074617720646174650000000000557374C3
:1003F400617720616C61726D00000000576C2F57AB
:10040400796C20616C61726D0000003E20005365C0
:0E0414006C6563746564206F70743A2000009C
:00000001FF
